{
  "_format": "hh-sol-artifact-1",
  "contractName": "NFTAuction",
  "sourceName": "contracts/NFTAuction.sol",
  "abi": [
    {
      "anonymous": false,
      "inputs": [
        {
          "indexed": true,
          "internalType": "bytes32",
          "name": "auctionHash",
          "type": "bytes32"
        },
        {
          "indexed": false,
          "internalType": "uint256",
          "name": "auctionIndex",
          "type": "uint256"
        },
        {
          "indexed": false,
          "internalType": "address",
          "name": "winner",
          "type": "address"
        },
        {
          "indexed": false,
          "internalType": "uint256",
          "name": "amount",
          "type": "uint256"
        }
      ],
      "name": "Accept",
      "type": "event"
    },
    {
      "anonymous": false,
      "inputs": [
        {
          "indexed": false,
          "internalType": "address",
          "name": "previousAdmin",
          "type": "address"
        },
        {
          "indexed": false,
          "internalType": "address",
          "name": "newAdmin",
          "type": "address"
        }
      ],
      "name": "AdminChanged",
      "type": "event"
    },
    {
      "anonymous": false,
      "inputs": [
        {
          "indexed": true,
          "internalType": "address",
          "name": "beacon",
          "type": "address"
        }
      ],
      "name": "BeaconUpgraded",
      "type": "event"
    },
    {
      "anonymous": false,
      "inputs": [
        {
          "indexed": true,
          "internalType": "bytes32",
          "name": "auctionHash",
          "type": "bytes32"
        },
        {
          "indexed": false,
          "internalType": "uint256",
          "name": "auctionIndex",
          "type": "uint256"
        },
        {
          "indexed": false,
          "internalType": "uint256",
          "name": "bidIndex",
          "type": "uint256"
        },
        {
          "indexed": true,
          "internalType": "address",
          "name": "sender",
          "type": "address"
        },
        {
          "indexed": false,
          "internalType": "uint256",
          "name": "amount",
          "type": "uint256"
        }
      ],
      "name": "Bid",
      "type": "event"
    },
    {
      "anonymous": false,
      "inputs": [
        {
          "indexed": true,
          "internalType": "bytes32",
          "name": "auctionHash",
          "type": "bytes32"
        },
        {
          "indexed": false,
          "internalType": "uint256",
          "name": "auctionIndex",
          "type": "uint256"
        },
        {
          "indexed": false,
          "internalType": "address",
          "name": "seller",
          "type": "address"
        }
      ],
      "name": "Cancel",
      "type": "event"
    },
    {
      "anonymous": false,
      "inputs": [
        {
          "indexed": true,
          "internalType": "bytes32",
          "name": "auctionHash",
          "type": "bytes32"
        },
        {
          "indexed": false,
          "internalType": "uint256",
          "name": "auctionIndex",
          "type": "uint256"
        }
      ],
      "name": "CreateAuction",
      "type": "event"
    },
    {
      "anonymous": false,
      "inputs": [
        {
          "indexed": false,
          "internalType": "uint8",
          "name": "version",
          "type": "uint8"
        }
      ],
      "name": "Initialized",
      "type": "event"
    },
    {
      "anonymous": false,
      "inputs": [
        {
          "indexed": true,
          "internalType": "address",
          "name": "previousOwner",
          "type": "address"
        },
        {
          "indexed": true,
          "internalType": "address",
          "name": "newOwner",
          "type": "address"
        }
      ],
      "name": "OwnershipTransferred",
      "type": "event"
    },
    {
      "anonymous": false,
      "inputs": [
        {
          "indexed": true,
          "internalType": "bytes32",
          "name": "auctionHash",
          "type": "bytes32"
        },
        {
          "indexed": false,
          "internalType": "address",
          "name": "sender",
          "type": "address"
        },
        {
          "indexed": false,
          "internalType": "uint256",
          "name": "increasedMinutes",
          "type": "uint256"
        }
      ],
      "name": "TimeIncreased",
      "type": "event"
    },
    {
      "anonymous": false,
      "inputs": [
        {
          "indexed": true,
          "internalType": "address",
          "name": "implementation",
          "type": "address"
        }
      ],
      "name": "Upgraded",
      "type": "event"
    },
    {
      "anonymous": false,
      "inputs": [
        {
          "indexed": true,
          "internalType": "bytes32",
          "name": "auctionHash",
          "type": "bytes32"
        },
        {
          "indexed": false,
          "internalType": "uint256",
          "name": "auctionIndex",
          "type": "uint256"
        },
        {
          "indexed": false,
          "internalType": "uint256",
          "name": "_bidIndex",
          "type": "uint256"
        },
        {
          "indexed": true,
          "internalType": "address",
          "name": "bidder",
          "type": "address"
        },
        {
          "indexed": false,
          "internalType": "uint256",
          "name": "amount",
          "type": "uint256"
        }
      ],
      "name": "Withdraw",
      "type": "event"
    },
    {
      "inputs": [],
      "name": "IID_IERC1155",
      "outputs": [
        {
          "internalType": "bytes4",
          "name": "",
          "type": "bytes4"
        }
      ],
      "stateMutability": "view",
      "type": "function"
    },
    {
      "inputs": [],
      "name": "IID_IERC721",
      "outputs": [
        {
          "internalType": "bytes4",
          "name": "",
          "type": "bytes4"
        }
      ],
      "stateMutability": "view",
      "type": "function"
    },
    {
      "inputs": [
        {
          "internalType": "bytes32",
          "name": "_auctionHash",
          "type": "bytes32"
        },
        {
          "internalType": "uint256",
          "name": "_auctionIndex",
          "type": "uint256"
        }
      ],
      "name": "accept",
      "outputs": [],
      "stateMutability": "nonpayable",
      "type": "function"
    },
    {
      "inputs": [
        {
          "internalType": "uint256",
          "name": "",
          "type": "uint256"
        }
      ],
      "name": "auctionHashes",
      "outputs": [
        {
          "internalType": "bytes32",
          "name": "",
          "type": "bytes32"
        }
      ],
      "stateMutability": "view",
      "type": "function"
    },
    {
      "inputs": [
        {
          "internalType": "bytes32",
          "name": "",
          "type": "bytes32"
        },
        {
          "internalType": "uint256",
          "name": "",
          "type": "uint256"
        }
      ],
      "name": "auctions",
      "outputs": [
        {
          "internalType": "address",
          "name": "nft",
          "type": "address"
        },
        {
          "internalType": "address payable",
          "name": "seller",
          "type": "address"
        },
        {
          "internalType": "address",
          "name": "highestBidder",
          "type": "address"
        },
        {
          "internalType": "bool",
          "name": "ended",
          "type": "bool"
        },
        {
          "internalType": "bool",
          "name": "isValue",
          "type": "bool"
        },
        {
          "internalType": "uint256",
          "name": "nftId",
          "type": "uint256"
        },
        {
          "internalType": "uint256",
          "name": "startingBid",
          "type": "uint256"
        },
        {
          "internalType": "uint256",
          "name": "highestBid",
          "type": "uint256"
        },
        {
          "internalType": "uint256",
          "name": "endAt",
          "type": "uint256"
        },
        {
          "internalType": "uint256",
          "name": "hashId",
          "type": "uint256"
        },
        {
          "internalType": "uint256",
          "name": "quantity",
          "type": "uint256"
        },
        {
          "internalType": "uint256",
          "name": "minimumBid",
          "type": "uint256"
        }
      ],
      "stateMutability": "view",
      "type": "function"
    },
    {
      "inputs": [
        {
          "internalType": "bytes32",
          "name": "_auctionHash",
          "type": "bytes32"
        },
        {
          "internalType": "uint256",
          "name": "_auctionIndex",
          "type": "uint256"
        }
      ],
      "name": "bid",
      "outputs": [],
      "stateMutability": "payable",
      "type": "function"
    },
    {
      "inputs": [
        {
          "internalType": "bytes32",
          "name": "_auctionHash",
          "type": "bytes32"
        },
        {
          "internalType": "uint256",
          "name": "_auctionIndex",
          "type": "uint256"
        }
      ],
      "name": "cancel",
      "outputs": [],
      "stateMutability": "nonpayable",
      "type": "function"
    },
    {
      "inputs": [],
      "name": "count",
      "outputs": [
        {
          "internalType": "uint256",
          "name": "",
          "type": "uint256"
        }
      ],
      "stateMutability": "view",
      "type": "function"
    },
    {
      "inputs": [
        {
          "internalType": "address",
          "name": "_nft",
          "type": "address"
        },
        {
          "internalType": "uint256",
          "name": "_nftId",
          "type": "uint256"
        },
        {
          "internalType": "uint256",
          "name": "_quantity",
          "type": "uint256"
        },
        {
          "internalType": "uint256",
          "name": "_startingBid",
          "type": "uint256"
        },
        {
          "internalType": "uint256",
          "name": "_runTime",
          "type": "uint256"
        }
      ],
      "name": "createAuction",
      "outputs": [],
      "stateMutability": "nonpayable",
      "type": "function"
    },
    {
      "inputs": [
        {
          "internalType": "address",
          "name": "_sender",
          "type": "address"
        },
        {
          "internalType": "address",
          "name": "_collection",
          "type": "address"
        },
        {
          "internalType": "uint256",
          "name": "_nftId",
          "type": "uint256"
        },
        {
          "internalType": "uint256",
          "name": "_quantity",
          "type": "uint256"
        }
      ],
      "name": "generateHash",
      "outputs": [
        {
          "internalType": "bytes32",
          "name": "",
          "type": "bytes32"
        }
      ],
      "stateMutability": "pure",
      "type": "function"
    },
    {
      "inputs": [
        {
          "internalType": "bytes32",
          "name": "_auctionHash",
          "type": "bytes32"
        },
        {
          "internalType": "uint256",
          "name": "_auctionIndex",
          "type": "uint256"
        }
      ],
      "name": "getAuction",
      "outputs": [
        {
          "components": [
            {
              "internalType": "address",
              "name": "nft",
              "type": "address"
            },
            {
              "internalType": "address payable",
              "name": "seller",
              "type": "address"
            },
            {
              "internalType": "address",
              "name": "highestBidder",
              "type": "address"
            },
            {
              "internalType": "bool",
              "name": "ended",
              "type": "bool"
            },
            {
              "internalType": "bool",
              "name": "isValue",
              "type": "bool"
            },
            {
              "internalType": "uint256",
              "name": "nftId",
              "type": "uint256"
            },
            {
              "internalType": "uint256",
              "name": "startingBid",
              "type": "uint256"
            },
            {
              "internalType": "uint256",
              "name": "highestBid",
              "type": "uint256"
            },
            {
              "internalType": "uint256",
              "name": "endAt",
              "type": "uint256"
            },
            {
              "internalType": "uint256",
              "name": "hashId",
              "type": "uint256"
            },
            {
              "internalType": "uint256",
              "name": "quantity",
              "type": "uint256"
            },
            {
              "internalType": "uint256",
              "name": "minimumBid",
              "type": "uint256"
            }
          ],
          "internalType": "struct Auction",
          "name": "",
          "type": "tuple"
        }
      ],
      "stateMutability": "view",
      "type": "function"
    },
    {
      "inputs": [
        {
          "internalType": "bytes32",
          "name": "hash",
          "type": "bytes32"
        }
      ],
      "name": "getAuctionsByHash",
      "outputs": [
        {
          "components": [
            {
              "internalType": "address",
              "name": "nft",
              "type": "address"
            },
            {
              "internalType": "address payable",
              "name": "seller",
              "type": "address"
            },
            {
              "internalType": "address",
              "name": "highestBidder",
              "type": "address"
            },
            {
              "internalType": "bool",
              "name": "ended",
              "type": "bool"
            },
            {
              "internalType": "bool",
              "name": "isValue",
              "type": "bool"
            },
            {
              "internalType": "uint256",
              "name": "nftId",
              "type": "uint256"
            },
            {
              "internalType": "uint256",
              "name": "startingBid",
              "type": "uint256"
            },
            {
              "internalType": "uint256",
              "name": "highestBid",
              "type": "uint256"
            },
            {
              "internalType": "uint256",
              "name": "endAt",
              "type": "uint256"
            },
            {
              "internalType": "uint256",
              "name": "hashId",
              "type": "uint256"
            },
            {
              "internalType": "uint256",
              "name": "quantity",
              "type": "uint256"
            },
            {
              "internalType": "uint256",
              "name": "minimumBid",
              "type": "uint256"
            }
          ],
          "internalType": "struct Auction[]",
          "name": "",
          "type": "tuple[]"
        }
      ],
      "stateMutability": "view",
      "type": "function"
    },
    {
      "inputs": [
        {
          "internalType": "bytes32",
          "name": "_auctionHash",
          "type": "bytes32"
        },
        {
          "internalType": "uint256",
          "name": "_auctionIndex",
          "type": "uint256"
        }
      ],
      "name": "getSeller",
      "outputs": [
        {
          "internalType": "address",
          "name": "",
          "type": "address"
        }
      ],
      "stateMutability": "view",
      "type": "function"
    },
    {
      "inputs": [],
      "name": "hashes",
      "outputs": [
        {
          "internalType": "bytes32[]",
          "name": "",
          "type": "bytes32[]"
        }
      ],
      "stateMutability": "view",
      "type": "function"
    },
    {
      "inputs": [
        {
          "internalType": "address",
          "name": "_marketAddress",
          "type": "address"
        },
        {
          "internalType": "address",
          "name": "_stakeAddress",
          "type": "address"
        }
      ],
      "name": "initialize",
      "outputs": [],
      "stateMutability": "nonpayable",
      "type": "function"
    },
    {
      "inputs": [
        {
          "internalType": "address",
          "name": "_nft",
          "type": "address"
        }
      ],
      "name": "is1155",
      "outputs": [
        {
          "internalType": "bool",
          "name": "",
          "type": "bool"
        }
      ],
      "stateMutability": "view",
      "type": "function"
    },
    {
      "inputs": [
        {
          "internalType": "address",
          "name": "_nft",
          "type": "address"
        }
      ],
      "name": "is721",
      "outputs": [
        {
          "internalType": "bool",
          "name": "",
          "type": "bool"
        }
      ],
      "stateMutability": "view",
      "type": "function"
    },
    {
      "inputs": [],
      "name": "marketAddress",
      "outputs": [
        {
          "internalType": "address",
          "name": "",
          "type": "address"
        }
      ],
      "stateMutability": "view",
      "type": "function"
    },
    {
      "inputs": [
        {
          "internalType": "bytes32",
          "name": "_auctionHash",
          "type": "bytes32"
        },
        {
          "internalType": "uint256",
          "name": "_auctionIndex",
          "type": "uint256"
        }
      ],
      "name": "minimumBid",
      "outputs": [
        {
          "internalType": "uint256",
          "name": "",
          "type": "uint256"
        }
      ],
      "stateMutability": "view",
      "type": "function"
    },
    {
      "inputs": [
        {
          "internalType": "address",
          "name": "",
          "type": "address"
        },
        {
          "internalType": "address",
          "name": "",
          "type": "address"
        },
        {
          "internalType": "uint256[]",
          "name": "",
          "type": "uint256[]"
        },
        {
          "internalType": "uint256[]",
          "name": "",
          "type": "uint256[]"
        },
        {
          "internalType": "bytes",
          "name": "",
          "type": "bytes"
        }
      ],
      "name": "onERC1155BatchReceived",
      "outputs": [
        {
          "internalType": "bytes4",
          "name": "",
          "type": "bytes4"
        }
      ],
      "stateMutability": "nonpayable",
      "type": "function"
    },
    {
      "inputs": [
        {
          "internalType": "address",
          "name": "",
          "type": "address"
        },
        {
          "internalType": "address",
          "name": "",
          "type": "address"
        },
        {
          "internalType": "uint256",
          "name": "",
          "type": "uint256"
        },
        {
          "internalType": "uint256",
          "name": "",
          "type": "uint256"
        },
        {
          "internalType": "bytes",
          "name": "",
          "type": "bytes"
        }
      ],
      "name": "onERC1155Received",
      "outputs": [
        {
          "internalType": "bytes4",
          "name": "",
          "type": "bytes4"
        }
      ],
      "stateMutability": "nonpayable",
      "type": "function"
    },
    {
      "inputs": [],
      "name": "owner",
      "outputs": [
        {
          "internalType": "address",
          "name": "",
          "type": "address"
        }
      ],
      "stateMutability": "view",
      "type": "function"
    },
    {
      "inputs": [],
      "name": "proxiableUUID",
      "outputs": [
        {
          "internalType": "bytes32",
          "name": "",
          "type": "bytes32"
        }
      ],
      "stateMutability": "view",
      "type": "function"
    },
    {
      "inputs": [],
      "name": "renounceOwnership",
      "outputs": [],
      "stateMutability": "nonpayable",
      "type": "function"
    },
    {
      "inputs": [
        {
          "internalType": "bytes32",
          "name": "_auctionHash",
          "type": "bytes32"
        },
        {
          "internalType": "uint256",
          "name": "_auctionIndex",
          "type": "uint256"
        },
        {
          "internalType": "address[]",
          "name": "_users",
          "type": "address[]"
        }
      ],
      "name": "returnBidsToWallets",
      "outputs": [],
      "stateMutability": "nonpayable",
      "type": "function"
    },
    {
      "inputs": [],
      "name": "stakeAddress",
      "outputs": [
        {
          "internalType": "address",
          "name": "",
          "type": "address"
        }
      ],
      "stateMutability": "view",
      "type": "function"
    },
    {
      "inputs": [
        {
          "internalType": "bytes4",
          "name": "interfaceId",
          "type": "bytes4"
        }
      ],
      "name": "supportsInterface",
      "outputs": [
        {
          "internalType": "bool",
          "name": "",
          "type": "bool"
        }
      ],
      "stateMutability": "view",
      "type": "function"
    },
    {
      "inputs": [
        {
          "internalType": "address",
          "name": "newOwner",
          "type": "address"
        }
      ],
      "name": "transferOwnership",
      "outputs": [],
      "stateMutability": "nonpayable",
      "type": "function"
    },
    {
      "inputs": [
        {
          "internalType": "address",
          "name": "newImplementation",
          "type": "address"
        }
      ],
      "name": "upgradeTo",
      "outputs": [],
      "stateMutability": "nonpayable",
      "type": "function"
    },
    {
      "inputs": [
        {
          "internalType": "address",
          "name": "newImplementation",
          "type": "address"
        },
        {
          "internalType": "bytes",
          "name": "data",
          "type": "bytes"
        }
      ],
      "name": "upgradeToAndCall",
      "outputs": [],
      "stateMutability": "payable",
      "type": "function"
    },
    {
      "inputs": [
        {
          "internalType": "bytes32",
          "name": "_auctionHash",
          "type": "bytes32"
        },
        {
          "internalType": "uint256",
          "name": "_auctionIndex",
          "type": "uint256"
        }
      ],
      "name": "withdraw",
      "outputs": [],
      "stateMutability": "nonpayable",
      "type": "function"
    }
  ],
  "bytecode": "0x60a06040523060601b60805234801561001757600080fd5b5060805160601c6140a961005260003960008181610f2001528181610f60015281816110b7015281816110f7015261118a01526140a96000f3fe6080604052600436106101d85760003560e01c80639562364111610102578063c1ce8a4b11610095578063e0966dad11610064578063e0966dad146105f3578063f23a6e611461060e578063f2fde38b1461063b578063f3bbbeef1461065b57600080fd5b8063c1ce8a4b14610573578063cb0d63a314610593578063cd772f5c146105c0578063d7befe89146105d357600080fd5b8063a580c6ff116100d1578063a580c6ff14610478578063a81d9bcc14610498578063aca30d80146104ba578063bc197c811461054457600080fd5b806395623641146103e4578063961c9ae4146104045780639b8cfe52146104245780639d14cb641461045857600080fd5b8063485cc9551161017a578063715018a611610149578063715018a614610359578063718881381461036e578063851073671461038e5780638da5cb5b146103c657600080fd5b8063485cc955146102f15780634f1ef2861461031157806352d1902d1461032457806361f335251461033957600080fd5b806306661abd116101b657806306661abd14610265578063069455a0146102845780633250cb8a146102a45780633659cfe6146102d157600080fd5b806301ffc9a7146101dd578063040cf0201461022357806304811f5a14610245575b600080fd5b3480156101e957600080fd5b5061020e6101f8366004613b1a565b6001600160e01b0319166301ffc9a760e01b1490565b60405190151581526020015b60405180910390f35b34801561022f57600080fd5b5061024361023e366004613aa8565b61067b565b005b34801561025157600080fd5b5061020e61026036600461375c565b6109eb565b34801561027157600080fd5b5060fd545b60405190815260200161021a565b34801561029057600080fd5b5061024361029f366004613aa8565b610a0d565b3480156102b057600080fd5b506102c46102bf366004613aa8565b610dec565b60405161021a9190613f11565b3480156102dd57600080fd5b506102436102ec36600461375c565b610f15565b3480156102fd57600080fd5b5061024361030c366004613794565b610ff5565b61024361031f366004613946565b6110ac565b34801561033057600080fd5b5061027661117d565b34801561034557600080fd5b5061020e61035436600461375c565b611230565b34801561036557600080fd5b5061024361124c565b34801561037a57600080fd5b50610276610389366004613887565b611282565b34801561039a57600080fd5b5060ff546103ae906001600160a01b031681565b6040516001600160a01b03909116815260200161021a565b3480156103d257600080fd5b506033546001600160a01b03166103ae565b3480156103f057600080fd5b5060fe546103ae906001600160a01b031681565b34801561041057600080fd5b5061024361041f366004613a15565b6112dc565b34801561043057600080fd5b5061043f636cdb3d1360e11b81565b6040516001600160e01b0319909116815260200161021a565b34801561046457600080fd5b50610243610473366004613aa8565b6115a4565b34801561048457600080fd5b50610276610493366004613aa8565b611c2f565b3480156104a457600080fd5b506104ad611d95565b60405161021a9190613c78565b3480156104c657600080fd5b506104da6104d5366004613aa8565b611ded565b604080516001600160a01b039d8e1681529b8d1660208d015299909b16988a01989098529515156060890152931515608088015260a087019290925260c086015260e08501526101008401526101208301526101408201526101608101919091526101800161021a565b34801561055057600080fd5b5061043f61055f3660046137cc565b63bc197c8160e01b98975050505050505050565b34801561057f57600080fd5b5061024361058e366004613ac9565b611e80565b34801561059f57600080fd5b506105b36105ae366004613a78565b612218565b60405161021a9190613cbc565b6102436105ce366004613aa8565b61231f565b3480156105df57600080fd5b506103ae6105ee366004613aa8565b6129bf565b3480156105ff57600080fd5b5061043f6380ac58cd60e01b81565b34801561061a57600080fd5b5061043f6106293660046138cc565b63f23a6e6160e01b9695505050505050565b34801561064757600080fd5b5061024361065636600461375c565b612a6f565b34801561066757600080fd5b50610276610676366004613a78565b612b07565b600082815260fb6020526040902054829082906106b35760405162461bcd60e51b81526004016106aa90613d32565b60405180910390fd5b600260655414156107065760405162461bcd60e51b815260206004820152601f60248201527f5265656e7472616e637947756172643a207265656e7472616e742063616c6c0060448201526064016106aa565b6002606555600084815260fb6020526040812080548590811061073957634e487b7160e01b600052603260045260246000fd5b60009182526020918290206040805161018081018252600a90930290910180546001600160a01b039081168452600182015481169484019490945260028101549384169183019190915260ff600160a01b8404811615156060840152600160a81b9093049092161580156080830152600383015460a0830152600483015460c0830152600583015460e083015260068301546101008301526007830154610120830152600883015461014083015260099092015461016082015291506108565760408101516001600160a01b03163314156108565760405162461bcd60e51b815260206004820181905260248201527f6e6f7420617661696c61626c6520666f7220686967686573742062696464657260448201526064016106aa565b6000610863868633612b28565b90508060001914156108a95760405162461bcd60e51b815260206004820152600f60248201526e1b9bc8189a5919195c88195e1a5cdd608a1b60448201526064016106aa565b600086815260fc60209081526040808320888452825280832033845290915281208054839081106108ea57634e487b7160e01b600052603260045260246000fd5b6000918252602080832060039092029091015489835260fc825260408084208a85528352808420338552909252912080549192506001918490811061093f57634e487b7160e01b600052603260045260246000fd5b6000918252602082206002600390920201018054921515600160a01b0260ff60a01b1990931692909217909155604051339183156108fc02918491818181858888f19350505050158015610997573d6000803e3d6000fd5b506040805187815260208101849052908101829052339088907fe2c3fa2ef335e52cb3e40c84dabc659380941f50cdfed434bd8c35a59f50c5d49060600160405180910390a3505060016065555050505050565b6000610a076001600160a01b038316636cdb3d1360e11b612c5d565b92915050565b600082815260fb60205260409020548290829015801590610a775750600082815260fb60205260409020805482908110610a5757634e487b7160e01b600052603260045260246000fd5b90600052602060002090600a020160020160159054906101000a900460ff165b610a935760405162461bcd60e51b81526004016106aa90613e78565b600084815260fb6020526040902080548591859133919083908110610ac857634e487b7160e01b600052603260045260246000fd5b600091825260209091206001600a9092020101546001600160a01b031614610b1f5760405162461bcd60e51b815260206004820152600a6024820152693737ba1039b2b63632b960b11b60448201526064016106aa565b600086815260fb60205260408120805487908110610b4d57634e487b7160e01b600052603260045260246000fd5b60009182526020918290206040805161018081018252600a90930290910180546001600160a01b039081168452600182015481169484019490945260028101549384169183019190915260ff600160a01b840481161580156060850152600160a81b9094041615156080830152600381015460a0830152600481015460c0830152600581015460e0830152600681015461010083015260078101546101208301526008810154610140830152600901546101608201529150610c215760405162461bcd60e51b81526004016106aa90613ef2565b610100810151610c344262015180613f51565b1115610c705760405162461bcd60e51b815260206004820152600b60248201526a1d1a5b59481c185cdcd95960aa1b60448201526064016106aa565b6000608082018190526001606083015287815260fb60205260409020805482919088908110610caf57634e487b7160e01b600052603260045260246000fd5b60009182526020918290208351600a9092020180546001600160a01b039283166001600160a01b031991821617825584840151600183018054918516919092161790556040840151600282018054606087015160808801511515600160a81b0260ff60a81b19911515600160a01b026001600160a81b0319909316949096169390931717919091169290921790915560a080840151600383015560c0840151600483015560e0840151600583015561010084015160068301556101208401516007830155610140808501516008840155610160909401516009909201919091558351918401519084015192840151610da993309291612c79565b6040805187815233602082015288917f2ce09644defe526d9619f4dafc2fa6c1d27a36eb0818aaa5a339df89eca10e95910160405180910390a250505050505050565b610df4613652565b600083815260fb602052604090205483908390610e235760405162461bcd60e51b81526004016106aa90613d32565b600085815260fb60205260409020805485908110610e5157634e487b7160e01b600052603260045260246000fd5b60009182526020918290206040805161018081018252600a90930290910180546001600160a01b039081168452600182015481169484019490945260028101549384169183019190915260ff600160a01b8404811615156060840152600160a81b90930490921615156080820152600382015460a0820152600482015460c0820152600582015460e082015260068201546101008201526007820154610120820152600882015461014082015260099091015461016082015292505b505092915050565b306001600160a01b037f0000000000000000000000000000000000000000000000000000000000000000161415610f5e5760405162461bcd60e51b81526004016106aa90613d5d565b7f00000000000000000000000000000000000000000000000000000000000000006001600160a01b0316610fa760008051602061402d833981519152546001600160a01b031690565b6001600160a01b031614610fcd5760405162461bcd60e51b81526004016106aa90613da9565b610fd681612d7d565b60408051600080825260208201909252610ff291839190612da7565b50565b60006110016001612f21565b90508015611019576000805461ff0019166101001790555b611021612fa9565b611029612fd0565b611031612fff565b60fe80546001600160a01b038086166001600160a01b03199283161790925560ff80549285169290911691909117905580156110a7576000805461ff0019169055604051600181527f7f26b83ff96e1f2b6a682f133852f6798a09c465da95921460cefb38474024989060200160405180910390a15b505050565b306001600160a01b037f00000000000000000000000000000000000000000000000000000000000000001614156110f55760405162461bcd60e51b81526004016106aa90613d5d565b7f00000000000000000000000000000000000000000000000000000000000000006001600160a01b031661113e60008051602061402d833981519152546001600160a01b031690565b6001600160a01b0316146111645760405162461bcd60e51b81526004016106aa90613da9565b61116d82612d7d565b61117982826001612da7565b5050565b6000306001600160a01b037f0000000000000000000000000000000000000000000000000000000000000000161461121d5760405162461bcd60e51b815260206004820152603860248201527f555550535570677261646561626c653a206d757374206e6f742062652063616c60448201527f6c6564207468726f7567682064656c656761746563616c6c000000000000000060648201526084016106aa565b5060008051602061402d83398151915290565b6000610a076001600160a01b0383166380ac58cd60e01b612c5d565b6033546001600160a01b031633146112765760405162461bcd60e51b81526004016106aa90613e43565b611280600061302e565b565b6040516bffffffffffffffffffffffff19606086811b8216602084015285901b1660348201526048810183905260688101829052600090608801604051602081830303815290604052805190602001209050949350505050565b60006112ea33878787611282565b90506000841161132f5760405162461bcd60e51b815260206004820152601060248201526f696e76616c6964207175616e7469747960801b60448201526064016106aa565b61133886611230565b15611407576040516331a9108f60e11b81526004810186905233906001600160a01b03881690636352211e9060240160206040518083038186803b15801561137f57600080fd5b505afa158015611393573d6000803e3d6000fd5b505050506040513d601f19601f820116820180604052508101906113b79190613778565b6001600160a01b0316146114025760405162461bcd60e51b81526020600482015260126024820152713737ba1037bbb732b91037b3103a37b5b2b760711b60448201526064016106aa565b611514565b611410866109eb565b156114d857604051627eeac760e11b81523360048201526024810186905284906001600160a01b0388169062fdd58e9060440160206040518083038186803b15801561145b57600080fd5b505afa15801561146f573d6000803e3d6000fd5b505050506040513d601f19601f820116820180604052508101906114939190613a90565b10156114025760405162461bcd60e51b8152602060048201526014602482015273696e73756666696369656e742062616c616e636560601b60448201526064016106aa565b60405162461bcd60e51b81526020600482015260116024820152701b9bdd081cdd5c1c1bdc9d1959081b999d607a1b60448201526064016106aa565b6115218633308888612c79565b61153081878787873388613080565b60fe5460405163dfa3d77360e01b81526001600160a01b038881166004830152602482018890523360448301529091169063dfa3d77390606401600060405180830381600087803b15801561158457600080fd5b505af1158015611598573d6000803e3d6000fd5b50505050505050505050565b600082815260fb6020526040902054829082901580159061160e5750600082815260fb602052604090208054829081106115ee57634e487b7160e01b600052603260045260246000fd5b90600052602060002090600a020160020160159054906101000a900460ff165b61162a5760405162461bcd60e51b81526004016106aa90613e78565b600084815260fb602052604090208054859185913391908390811061165f57634e487b7160e01b600052603260045260246000fd5b600091825260209091206001600a9092020101546001600160a01b0316146116b65760405162461bcd60e51b815260206004820152600a6024820152693737ba1039b2b63632b960b11b60448201526064016106aa565b600086815260fb602052604081208054879081106116e457634e487b7160e01b600052603260045260246000fd5b60009182526020918290206040805161018081018252600a90930290910180546001600160a01b039081168452600182015481169484019490945260028101549384169183019190915260ff600160a01b840481161580156060850152600160a81b9094041615156080830152600381015460a0830152600481015460c0830152600581015460e08301526006810154610100830152600781015461012083015260088101546101408301526009015461016082015291506117b85760405162461bcd60e51b81526004016106aa90613ef2565b60408101516001600160a01b031615611c2657600087815260fb60205260409020805460019190889081106117fd57634e487b7160e01b600052603260045260246000fd5b90600052602060002090600a020160020160146101000a81548160ff02191690831515021790555061184381600001513083604001518460a00151856101400151612c79565b60e081015160fe5482516040516332fac30760e01b81526001600160a01b039182166004820152600092839216906332fac3079060240160206040518083038186803b15801561189257600080fd5b505afa1580156118a6573d6000803e3d6000fd5b505050506040513d601f19601f820116820180604052508101906118ca9190613a58565b1561196457835160a085015160405163152a902d60e11b81526001600160a01b0390921691632a55205a9161190c918790600401918252602082015260400190565b604080518083038186803b15801561192357600080fd5b505afa158015611937573d6000803e3d6000fd5b505050506040513d601f19601f8201168201806040525081019061195b91906139e8565b92509050611a10565b60fe54845160405163eb61e37160e01b81526001600160a01b039182166004820152600092919091169063eb61e37190602401604080518083038186803b1580156119ae57600080fd5b505afa1580156119c2573d6000803e3d6000fd5b505050506040513d601f19601f820116820180604052508101906119e69190613b42565b9050606484826020015161ffff166119fe9190613f89565b611a089190613f69565b905190925090505b60fe54604051634065da6360e01b81526001600160a01b03838116600483015290911690634065da639084906024016000604051808303818588803b158015611a5857600080fd5b505af1158015611a6c573d6000803e3d6000fd5b505050505060006064846005611a829190613f89565b611a8c9190613f69565b60fe546040519192506000916001600160a01b039091169083908381818185875af1925050503d8060008114611ade576040519150601f19603f3d011682016040523d82523d6000602084013e611ae3565b606091505b5050905080611b2a5760405162461bcd60e51b81526020600482015260136024820152721d1c985b9cd9995c881999594819985a5b1959606a1b60448201526064016106aa565b3384611b368488613fa8565b611b409190613fa8565b604051600081818185875af1925050503d8060008114611b7c576040519150601f19603f3d011682016040523d82523d6000602084013e611b81565b606091505b50508091505080611bcd5760405162461bcd60e51b81526020600482015260166024820152751d1c985b9cd9995c881c995dd85c990819985a5b195960521b60448201526064016106aa565b60408681015160e088015182518e81526001600160a01b0390921660208301528183015290518d917ff0e0f92de47aeffa9551c6f3acfd0ea47d2af72c9053f6c4dabb9dc611d2a32f919081900360600190a250505050505b50505050505050565b600082815260fb602052604081205483908390611c5e5760405162461bcd60e51b81526004016106aa90613d32565b600085815260fb60205260408120805486908110611c8c57634e487b7160e01b600052603260045260246000fd5b90600052602060002090600a02016005015490508060001415611cf157600086815260fb60205260409020805486908110611cd757634e487b7160e01b600052603260045260246000fd5b90600052602060002090600a020160040154935050610f0d565b600068056bc75e2d631000008211611d125750678ac7230489e80000611d80565b683635c9adc5dea000008211611d3257506802b5e3af16b1880000611d80565b69010f0cf064dd592000008211611d53575068056bc75e2d63100000611d80565b69021e19e0c9bab24000008211611d745750680d8d726b7177a80000611d80565b50681b1ae4d6e2ef5000005b611d8a8183613f51565b979650505050505050565b606060fd805480602002602001604051908101604052809291908181526020018280548015611de357602002820191906000526020600020905b815481526020019060010190808311611dcf575b5050505050905090565b60fb6020528160005260406000208181548110611e0957600080fd5b60009182526020909120600a909102018054600182015460028301546003840154600485015460058601546006870154600788015460088901546009909901546001600160a01b039889169b5096881699509685169760ff600160a01b8704811698600160a81b909704169694959394929391928c565b6033546001600160a01b03163314611eaa5760405162461bcd60e51b81526004016106aa90613e43565b600084815260fb6020526040812080548392919086908110611edc57634e487b7160e01b600052603260045260246000fd5b6000918252602082206002600a9092020101546001600160a01b031691505b82811015611c2657816001600160a01b0316858583818110611f2d57634e487b7160e01b600052603260045260246000fd5b9050602002016020810190611f42919061375c565b6001600160a01b03161461221057600087815260fc60209081526040808320898452909152812081878785818110611f8a57634e487b7160e01b600052603260045260246000fd5b9050602002016020810190611f9f919061375c565b6001600160a01b031681526020810191909152604001600020549050801561220e57600088815260fc602090815260408083208a8452909152812081888886818110611ffb57634e487b7160e01b600052603260045260246000fd5b9050602002016020810190612010919061375c565b6001600160a01b031681526020810191909152604001600020612034600184613fa8565b8154811061205257634e487b7160e01b600052603260045260246000fd5b600091825260209182902060408051608081018252600393909302909101805483526001810154938301939093526002909201546001600160a01b03811692820192909252600160a01b90910460ff1615156060820181905290915061220c57600089815260fc602090815260408083208b845290915281206001918989878181106120ee57634e487b7160e01b600052603260045260246000fd5b9050602002016020810190612103919061375c565b6001600160a01b031681526020810191909152604001600020612127600185613fa8565b8154811061214557634e487b7160e01b600052603260045260246000fd5b906000526020600020906003020160020160146101000a81548160ff021916908315150217905550600081604001516001600160a01b0316826000015160405160006040518083038185875af1925050503d80600081146121c2576040519150601f19603f3d011682016040523d82523d6000602084013e6121c7565b606091505b505090508061220a5760405162461bcd60e51b815260206004820152600f60248201526e1d1c985b9cd9995c8819985a5b1959608a1b60448201526064016106aa565b505b505b505b600101611efb565b606060fb6000838152602001908152602001600020805480602002602001604051908101604052809291908181526020016000905b828210156123145760008481526020908190206040805161018081018252600a860290920180546001600160a01b03908116845260018083015482168587015260028301549182169385019390935260ff600160a01b8204811615156060860152600160a81b9091041615156080840152600381015460a0840152600481015460c0840152600581015460e084015260068101546101008401526007810154610120840152600881015461014084015260090154610160830152908352909201910161224d565b505050509050919050565b600082815260fb602052604090205482908290158015906123895750600082815260fb6020526040902080548290811061236957634e487b7160e01b600052603260045260246000fd5b90600052602060002090600a020160020160159054906101000a900460ff165b6123a55760405162461bcd60e51b81526004016106aa90613e78565b600084815260fb602052604081208054859081106123d357634e487b7160e01b600052603260045260246000fd5b60009182526020918290206040805161018081018252600a90930290910180546001600160a01b0390811684526001820154811694840185905260028201549081169284019290925260ff600160a01b8304811615156060850152600160a81b90920490911615156080830152600381015460a0830152600481015460c0830152600581015460e08301526006810154610100830152600781015461012083015260088101546101408301526009015461016082015291503314156124da5760405162461bcd60e51b815260206004820152601e60248201527f6e6f7420617661696c61626c6520666f7220746f6b656e2073656c6c6572000060448201526064016106aa565b80606001511561251c5760405162461bcd60e51b815260206004820152600d60248201526c185d58dd1a5bdb88195b991959609a1b60448201526064016106aa565b80610100015142106125405760405162461bcd60e51b81526004016106aa90613ef2565b600061254d868633612b28565b90503460001982146126b657600087815260fc602090815260408083208984528252808320338452909152902080543491908490811061259d57634e487b7160e01b600052603260045260246000fd5b9060005260206000209060030201600001546125b99190613f51565b90506125c58787611c2f565b8110156126045760405162461bcd60e51b815260206004820152600d60248201526c1b9bdd081b5a5b9a5d5b589a59609a1b60448201526064016106aa565b600087815260fc602090815260408083208984528252808320338452909152902080548291908490811061264857634e487b7160e01b600052603260045260246000fd5b6000918252602080832060039092029091019290925588815260fc8252604080822089835283528082203383529092522080544291908490811061269c57634e487b7160e01b600052603260045260246000fd5b90600052602060002090600302016001018190555061279c565b6126c08787611c2f565b3410156126ff5760405162461bcd60e51b815260206004820152600d60248201526c1b9bdd081b5a5b9a5d5b589a59609a1b60448201526064016106aa565b60408051608081018252600060608201818152348352338385018181524260208087019182528e865260fc81528786208e875281528786209386529283529584208054600180820183559186529290942094516003830290950194855594519284019290925592516002909201805493511515600160a01b026001600160a81b03199094166001600160a01b039093169290921792909217905591505b33604084015260e083018190526101008301516127bc9061025890613fa8565b4211156128175761025883610100018181516127d89190613f51565b90525060408051338152600a602082015288917fa9cb735d75f59d03362b162a45c010d6d256797ebbf04847f39642666990cf38910160405180910390a25b600087815260fb6020526040902080548491908890811061284857634e487b7160e01b600052603260045260246000fd5b60009182526020918290208351600a9092020180546001600160a01b039283166001600160a01b03199182161782559284015160018201805491841691909416179092556040830151600283018054606086015160808701511515600160a81b0260ff60a81b19911515600160a01b026001600160a81b03199093169490951693909317179190911691909117905560a0820151600382015560c0820151600482015560e082015160058201556101008201516006820155610120820151600782015561014082015160088201556101609091015160099091015561292d8787611c2f565b600088815260fb6020526040902080548890811061295b57634e487b7160e01b600052603260045260246000fd5b60009182526020918290206009600a909202010191909155604080518881529182018490528101829052339088907fbdeca9cce56a474ac1de552b325568f89c6684e8819d5beee92581366153e4e29060600160405180910390a350505050505050565b6033546000906001600160a01b031633146129ec5760405162461bcd60e51b81526004016106aa90613e43565b600083815260fb602052604090205483908390612a1b5760405162461bcd60e51b81526004016106aa90613d32565b600085815260fb60205260409020805485908110612a4957634e487b7160e01b600052603260045260246000fd5b60009182526020909120600a90910201600101546001600160a01b031695945050505050565b6033546001600160a01b03163314612a995760405162461bcd60e51b81526004016106aa90613e43565b6001600160a01b038116612afe5760405162461bcd60e51b815260206004820152602660248201527f4f776e61626c653a206e6577206f776e657220697320746865207a65726f206160448201526564647265737360d01b60648201526084016106aa565b610ff28161302e565b60fd8181548110612b1757600080fd5b600091825260209091200154905081565b600083815260fc6020908152604080832085845282528083206001600160a01b0385168452909152812054815b81811015612c4e57600086815260fc6020908152604080832088845282528083206001600160a01b0388168085529252909120805483908110612ba857634e487b7160e01b600052603260045260246000fd5b60009182526020909120600260039092020101546001600160a01b0316148015612c385750600086815260fc6020908152604080832088845282528083206001600160a01b03881684529091529020805482908110612c1757634e487b7160e01b600052603260045260246000fd5b906000526020600020906003020160020160149054906101000a900460ff16155b15612c46579150612c569050565b600101612b55565b506000199150505b9392505050565b6000612c68836132a4565b8015612c565750612c5683836132d7565b612c8285611230565b15612cf6576040516323b872dd60e01b81526001600160a01b0385811660048301528481166024830152604482018490528616906323b872dd90606401600060405180830381600087803b158015612cd957600080fd5b505af1158015612ced573d6000803e3d6000fd5b50505050612d76565b604051637921219560e11b81526001600160a01b0385811660048301528481166024830152604482018490526064820183905260a06084830152600060a483015286169063f242432a9060c401600060405180830381600087803b158015612d5d57600080fd5b505af1158015612d71573d6000803e3d6000fd5b505050505b5050505050565b6033546001600160a01b03163314610ff25760405162461bcd60e51b81526004016106aa90613e43565b7f4910fdfa16fed3260ed0e7147f7cc6da11a60208b5b9406d12a635614ffd91435460ff1615612dda576110a7836133c0565b826001600160a01b03166352d1902d6040518163ffffffff1660e01b815260040160206040518083038186803b158015612e1357600080fd5b505afa925050508015612e43575060408051601f3d908101601f19168201909252612e4091810190613a90565b60015b612ea65760405162461bcd60e51b815260206004820152602e60248201527f45524331393637557067726164653a206e657720696d706c656d656e7461746960448201526d6f6e206973206e6f74205555505360901b60648201526084016106aa565b60008051602061402d8339815191528114612f155760405162461bcd60e51b815260206004820152602960248201527f45524331393637557067726164653a20756e737570706f727465642070726f786044820152681a58589b195555525160ba1b60648201526084016106aa565b506110a783838361345c565b60008054610100900460ff1615612f68578160ff166001148015612f445750303b155b612f605760405162461bcd60e51b81526004016106aa90613df5565b506000919050565b60005460ff808416911610612f8f5760405162461bcd60e51b81526004016106aa90613df5565b506000805460ff191660ff92909216919091179055600190565b600054610100900460ff166112805760405162461bcd60e51b81526004016106aa90613ea7565b600054610100900460ff16612ff75760405162461bcd60e51b81526004016106aa90613ea7565b611280613487565b600054610100900460ff166130265760405162461bcd60e51b81526004016106aa90613ea7565b6112806134b5565b603380546001600160a01b038381166001600160a01b0319831681179093556040519116919082907f8be0079c531659141344cd1fd0a4f28419497f9722a3daafe3b4186f6b6457e090600090a35050565b60fd80546001810182556000919091527f9346ac6dd7de6b96975fec380d4d994c4c12e6a8897544f22915316cc6cca280018790556130bd613652565b6001600160a01b03878116825260a082018790528316602082015260c0810184905260016080820181905260fd546130f59190613fa8565b6101208201526131058242613f51565b6101008201908152610140820186815260008a815260fb602090815260408083208054600181810183558286528486208951600a9093020180546001600160a01b039384166001600160a01b0319918216178255958a0151818301805491851691909716179095559288015160028501805460608b015160808c01511515600160a81b0260ff60a81b19911515600160a01b026001600160a81b03199093169490951693909317179190911691909117905560a0870151600384015560c0870151600484015560e08701516005840155945160068301556101208601516007830155925160088201556101608501516009909101558a9052905490613210908a906104939084613fa8565b60008a815260fb60205260409020613229600184613fa8565b8154811061324757634e487b7160e01b600052603260045260246000fd5b600091825260209091206009600a909202010155887fb5d71c0169068f1b4a886197bea01470891a80fb0b8d506d426eb39ed80e67c7613288600184613fa8565b60405190815260200160405180910390a2505050505050505050565b60006132b7826301ffc9a760e01b6132d7565b8015610a0757506132d0826001600160e01b03196132d7565b1592915050565b604080516001600160e01b0319831660248083019190915282518083039091018152604490910182526020810180516001600160e01b03166301ffc9a760e01b179052905160009190829081906001600160a01b038716906175309061333e908690613c5c565b6000604051808303818686fa925050503d806000811461337a576040519150601f19603f3d011682016040523d82523d6000602084013e61337f565b606091505b509150915060208151101561339a5760009350505050610a07565b8180156133b65750808060200190518101906133b69190613a58565b9695505050505050565b6001600160a01b0381163b61342d5760405162461bcd60e51b815260206004820152602d60248201527f455243313936373a206e657720696d706c656d656e746174696f6e206973206e60448201526c1bdd08184818dbdb9d1c9858dd609a1b60648201526084016106aa565b60008051602061402d83398151915280546001600160a01b0319166001600160a01b0392909216919091179055565b613465836134e5565b6000825111806134725750805b156110a7576134818383613525565b50505050565b600054610100900460ff166134ae5760405162461bcd60e51b81526004016106aa90613ea7565b6001606555565b600054610100900460ff166134dc5760405162461bcd60e51b81526004016106aa90613ea7565b6112803361302e565b6134ee816133c0565b6040516001600160a01b038216907fbc7cd75a20ee27fd9adebab32041f755214dbc6bffa90cc0225b39da2e5c2d3b90600090a250565b60606001600160a01b0383163b61358d5760405162461bcd60e51b815260206004820152602660248201527f416464726573733a2064656c65676174652063616c6c20746f206e6f6e2d636f6044820152651b9d1c9858dd60d21b60648201526084016106aa565b600080846001600160a01b0316846040516135a89190613c5c565b600060405180830381855af49150503d80600081146135e3576040519150601f19603f3d011682016040523d82523d6000602084013e6135e8565b606091505b5091509150613610828260405180606001604052806027815260200161404d60279139613619565b95945050505050565b60608315613628575081612c56565b8251156136385782518084602001fd5b8160405162461bcd60e51b81526004016106aa9190613cff565b60405180610180016040528060006001600160a01b0316815260200160006001600160a01b0316815260200160006001600160a01b03168152602001600015158152602001600015158152602001600081526020016000815260200160008152602001600081526020016000815260200160008152602001600081525090565b60008083601f8401126136e3578081fd5b50813567ffffffffffffffff8111156136fa578182fd5b6020830191508360208260051b850101111561371557600080fd5b9250929050565b60008083601f84011261372d578182fd5b50813567ffffffffffffffff811115613744578182fd5b60208301915083602082850101111561371557600080fd5b60006020828403121561376d578081fd5b8135612c5681614017565b600060208284031215613789578081fd5b8151612c5681614017565b600080604083850312156137a6578081fd5b82356137b181614017565b915060208301356137c181614017565b809150509250929050565b60008060008060008060008060a0898b0312156137e7578384fd5b88356137f281614017565b9750602089013561380281614017565b9650604089013567ffffffffffffffff8082111561381e578586fd5b61382a8c838d016136d2565b909850965060608b0135915080821115613842578586fd5b61384e8c838d016136d2565b909650945060808b0135915080821115613866578384fd5b506138738b828c0161371c565b999c989b5096995094979396929594505050565b6000806000806080858703121561389c578384fd5b84356138a781614017565b935060208501356138b781614017565b93969395505050506040820135916060013590565b60008060008060008060a087890312156138e4578182fd5b86356138ef81614017565b955060208701356138ff81614017565b94506040870135935060608701359250608087013567ffffffffffffffff811115613928578283fd5b61393489828a0161371c565b979a9699509497509295939492505050565b60008060408385031215613958578182fd5b823561396381614017565b915060208381013567ffffffffffffffff80821115613980578384fd5b818601915086601f830112613993578384fd5b8135818111156139a5576139a5614001565b6139b7601f8201601f19168501613f20565b915080825287848285010111156139cc578485fd5b8084840185840137810190920192909252919491935090915050565b600080604083850312156139fa578182fd5b8251613a0581614017565b6020939093015192949293505050565b600080600080600060a08688031215613a2c578283fd5b8535613a3781614017565b97602087013597506040870135966060810135965060800135945092505050565b600060208284031215613a69578081fd5b81518015158114612c56578182fd5b600060208284031215613a89578081fd5b5035919050565b600060208284031215613aa1578081fd5b5051919050565b60008060408385031215613aba578182fd5b50508035926020909101359150565b60008060008060608587031215613ade578182fd5b8435935060208501359250604085013567ffffffffffffffff811115613b02578283fd5b613b0e878288016136d2565b95989497509550505050565b600060208284031215613b2b578081fd5b81356001600160e01b031981168114612c56578182fd5b600060408284031215613b53578081fd5b6040516040810181811067ffffffffffffffff82111715613b7657613b76614001565b6040528251613b8481614017565b8152602083015161ffff81168114613b9a578283fd5b60208201529392505050565b80516001600160a01b031682526020810151613bcd60208401826001600160a01b03169052565b506040810151613be860408401826001600160a01b03169052565b506060810151613bfc606084018215159052565b506080810151613c10608084018215159052565b5060a0818101519083015260c0808201519083015260e0808201519083015261010080820151908301526101208082015190830152610140808201519083015261016090810151910152565b60008251613c6e818460208701613fbf565b9190910192915050565b6020808252825182820181905260009190848201906040850190845b81811015613cb057835183529284019291840191600101613c94565b50909695505050505050565b6020808252825182820181905260009190848201906040850190845b81811015613cb057613ceb838551613ba6565b928401926101809290920191600101613cd8565b6020815260008251806020840152613d1e816040850160208701613fbf565b601f01601f19169190910160400192915050565b6020808252601190820152703737ba1032bc34b9ba1030bab1ba34b7b760791b604082015260600190565b6020808252602c908201527f46756e6374696f6e206d7573742062652063616c6c6564207468726f7567682060408201526b19195b1959d85d1958d85b1b60a21b606082015260800190565b6020808252602c908201527f46756e6374696f6e206d7573742062652063616c6c6564207468726f7567682060408201526b6163746976652070726f787960a01b606082015260800190565b6020808252602e908201527f496e697469616c697a61626c653a20636f6e747261637420697320616c72656160408201526d191e481a5b9a5d1a585b1a5e995960921b606082015260800190565b6020808252818101527f4f776e61626c653a2063616c6c6572206973206e6f7420746865206f776e6572604082015260600190565b60208082526015908201527461756374696f6e206e6f7420617661696c61626c6560581b604082015260600190565b6020808252602b908201527f496e697469616c697a61626c653a20636f6e7472616374206973206e6f74206960408201526a6e697469616c697a696e6760a81b606082015260800190565b602080825260059082015264195b99195960da1b604082015260600190565b6101808101610a078284613ba6565b604051601f8201601f1916810167ffffffffffffffff81118282101715613f4957613f49614001565b604052919050565b60008219821115613f6457613f64613feb565b500190565b600082613f8457634e487b7160e01b81526012600452602481fd5b500490565b6000816000190483118215151615613fa357613fa3613feb565b500290565b600082821015613fba57613fba613feb565b500390565b60005b83811015613fda578181015183820152602001613fc2565b838111156134815750506000910152565b634e487b7160e01b600052601160045260246000fd5b634e487b7160e01b600052604160045260246000fd5b6001600160a01b0381168114610ff257600080fdfe360894a13ba1a3210667c828492db98dca3e2076cc3735a920a3ca505d382bbc416464726573733a206c6f772d6c6576656c2064656c65676174652063616c6c206661696c6564a2646970667358221220705663a3e47e3b25d14ab0f167b1608483e241a328dfcfd7e2c00d911b2ef44064736f6c63430008040033",
  "linkReferences": {},
  "deployedLinkReferences": {}
}