{
  "_format": "hh-sol-artifact-1",
  "contractName": "SlothyRefund",
  "sourceName": "contracts/drops/SlothyRefund.sol",
  "abi": [
    {
      "inputs": [
        {
          "internalType": "address",
          "name": "_slothyAddress",
          "type": "address"
        }
      ],
      "stateMutability": "nonpayable",
      "type": "constructor"
    },
    {
      "anonymous": false,
      "inputs": [
        {
          "indexed": false,
          "internalType": "address",
          "name": "to",
          "type": "address"
        },
        {
          "indexed": false,
          "internalType": "uint256",
          "name": "amount",
          "type": "uint256"
        },
        {
          "indexed": false,
          "internalType": "uint256",
          "name": "tokenId",
          "type": "uint256"
        }
      ],
      "name": "ClaimRefund",
      "type": "event"
    },
    {
      "anonymous": false,
      "inputs": [
        {
          "indexed": true,
          "internalType": "address",
          "name": "previousOwner",
          "type": "address"
        },
        {
          "indexed": true,
          "internalType": "address",
          "name": "newOwner",
          "type": "address"
        }
      ],
      "name": "OwnershipTransferred",
      "type": "event"
    },
    {
      "anonymous": false,
      "inputs": [
        {
          "indexed": false,
          "internalType": "address",
          "name": "account",
          "type": "address"
        }
      ],
      "name": "Paused",
      "type": "event"
    },
    {
      "anonymous": false,
      "inputs": [
        {
          "indexed": false,
          "internalType": "address",
          "name": "account",
          "type": "address"
        }
      ],
      "name": "Unpaused",
      "type": "event"
    },
    {
      "inputs": [
        {
          "internalType": "address",
          "name": "to",
          "type": "address"
        },
        {
          "internalType": "uint256[]",
          "name": "tokenIds",
          "type": "uint256[]"
        }
      ],
      "name": "claimRefund",
      "outputs": [],
      "stateMutability": "nonpayable",
      "type": "function"
    },
    {
      "inputs": [
        {
          "internalType": "address",
          "name": "_to",
          "type": "address"
        }
      ],
      "name": "getRefundInfo",
      "outputs": [
        {
          "components": [
            {
              "internalType": "uint256",
              "name": "cost",
              "type": "uint256"
            },
            {
              "internalType": "uint256[]",
              "name": "Ids",
              "type": "uint256[]"
            }
          ],
          "internalType": "struct SlothyRefund.RefundInfo",
          "name": "",
          "type": "tuple"
        }
      ],
      "stateMutability": "view",
      "type": "function"
    },
    {
      "inputs": [],
      "name": "owner",
      "outputs": [
        {
          "internalType": "address",
          "name": "",
          "type": "address"
        }
      ],
      "stateMutability": "view",
      "type": "function"
    },
    {
      "inputs": [],
      "name": "pause",
      "outputs": [],
      "stateMutability": "nonpayable",
      "type": "function"
    },
    {
      "inputs": [],
      "name": "paused",
      "outputs": [
        {
          "internalType": "bool",
          "name": "",
          "type": "bool"
        }
      ],
      "stateMutability": "view",
      "type": "function"
    },
    {
      "inputs": [],
      "name": "renounceOwnership",
      "outputs": [],
      "stateMutability": "nonpayable",
      "type": "function"
    },
    {
      "inputs": [
        {
          "components": [
            {
              "internalType": "address",
              "name": "to",
              "type": "address"
            },
            {
              "internalType": "uint256",
              "name": "cost",
              "type": "uint256"
            },
            {
              "internalType": "uint256[]",
              "name": "Ids",
              "type": "uint256[]"
            }
          ],
          "internalType": "struct SlothyRefund.RefundInfoInput[]",
          "name": "_refundInfos",
          "type": "tuple[]"
        }
      ],
      "name": "setRefundInfo",
      "outputs": [],
      "stateMutability": "nonpayable",
      "type": "function"
    },
    {
      "inputs": [
        {
          "internalType": "address",
          "name": "newOwner",
          "type": "address"
        }
      ],
      "name": "transferOwnership",
      "outputs": [],
      "stateMutability": "nonpayable",
      "type": "function"
    },
    {
      "inputs": [],
      "name": "unpause",
      "outputs": [],
      "stateMutability": "nonpayable",
      "type": "function"
    },
    {
      "inputs": [],
      "name": "withdraw",
      "outputs": [],
      "stateMutability": "nonpayable",
      "type": "function"
    },
    {
      "stateMutability": "payable",
      "type": "receive"
    }
  ],
  "bytecode": "0x60a060405234801561001057600080fd5b506040516110fc3803806110fc83398101604081905261002f916100ab565b6100383361005b565b600180556002805460ff1916905560601b6001600160601b0319166080526100d9565b600080546001600160a01b038381166001600160a01b0319831681178455604051919092169283917f8be0079c531659141344cd1fd0a4f28419497f9722a3daafe3b4186f6b6457e09190a35050565b6000602082840312156100bc578081fd5b81516001600160a01b03811681146100d2578182fd5b9392505050565b60805160601c610ffe6100fe600039600081816106b0015261078d0152610ffe6000f3fe6080604052600436106100955760003560e01c8063882dc31f11610059578063882dc31f1461011f5780638da5cb5b1461013f578063eb7b700614610167578063efca7af014610194578063f2fde38b146101b457600080fd5b80633ccfd60b146100a15780633f4ba83a146100b85780635c975abb146100cd578063715018a6146100f55780638456cb591461010a57600080fd5b3661009c57005b600080fd5b3480156100ad57600080fd5b506100b66101d4565b005b3480156100c457600080fd5b506100b6610295565b3480156100d957600080fd5b5060025460ff1660405190151581526020015b60405180910390f35b34801561010157600080fd5b506100b66102c9565b34801561011657600080fd5b506100b66102fd565b34801561012b57600080fd5b506100b661013a366004610e18565b61032f565b34801561014b57600080fd5b506000546040516001600160a01b0390911681526020016100ec565b34801561017357600080fd5b50610187610182366004610d8d565b6104b8565b6040516100ec9190610e8d565b3480156101a057600080fd5b506100b66101af366004610dc5565b610552565b3480156101c057600080fd5b506100b66101cf366004610d8d565b6109ba565b6000546001600160a01b031633146102075760405162461bcd60e51b81526004016101fe90610e58565b60405180910390fd5b604051600090339047908381818185875af1925050503d8060008114610249576040519150601f19603f3d011682016040523d82523d6000602084013e61024e565b606091505b50509050806102925760405162461bcd60e51b815260206004820152601060248201526f2a3930b739b332b9103330b4b632b21760811b60448201526064016101fe565b50565b6000546001600160a01b031633146102bf5760405162461bcd60e51b81526004016101fe90610e58565b6102c7610a52565b565b6000546001600160a01b031633146102f35760405162461bcd60e51b81526004016101fe90610e58565b6102c76000610ae5565b6000546001600160a01b031633146103275760405162461bcd60e51b81526004016101fe90610e58565b6102c7610b35565b6000546001600160a01b031633146103595760405162461bcd60e51b81526004016101fe90610e58565b8060005b818110156104b257604051806040016040528085858481811061039057634e487b7160e01b600052603260045260246000fd5b90506020028101906103a29190610f2d565b6020013581526020018585848181106103cb57634e487b7160e01b600052603260045260246000fd5b90506020028101906103dd9190610f2d565b6103eb906040810190610ee5565b808060200260200160405190810160405280939291908181526020018383602002808284376000920182905250939094525060039250879050868581811061044357634e487b7160e01b600052603260045260246000fd5b90506020028101906104559190610f2d565b610463906020810190610d8d565b6001600160a01b0316815260208082019290925260400160002082518155828201518051919261049b92600185019290910190610ce3565b5090505080806104aa90610f82565b91505061035d565b50505050565b6040805180820190915260008152606060208201526001600160a01b03821660009081526003602090815260409182902082518084018452815481526001820180548551818602810186019096528086529194929385810193929083018282801561054257602002820191906000526020600020905b81548152602001906001019080831161052e575b5050505050815250509050919050565b600260015414156105a55760405162461bcd60e51b815260206004820152601f60248201527f5265656e7472616e637947756172643a207265656e7472616e742063616c6c0060448201526064016101fe565b60026001556105b660025460ff1690565b156105f65760405162461bcd60e51b815260206004820152601060248201526f14185d5cd8589b194e881c185d5cd95960821b60448201526064016101fe565b610601828285610bb0565b61063d5760405162461bcd60e51b815260206004820152600d60248201526c696e636f72726563742069647360981b60448201526064016101fe565b6001600160a01b03831660009081526003602052604090205481906106628282610f4c565b4710156106a35760405162461bcd60e51b815260206004820152600f60248201526e6e6f20656e6f7567682066756e647360881b60448201526064016101fe565b60005b82811015610913577f00000000000000000000000000000000000000000000000000000000000000006001600160a01b0316636352211e8686848181106106fd57634e487b7160e01b600052603260045260246000fd5b905060200201356040518263ffffffff1660e01b815260040161072291815260200190565b60206040518083038186803b15801561073a57600080fd5b505afa15801561074e573d6000803e3d6000fd5b505050506040513d601f19601f820116820180604052508101906107729190610da9565b6001600160a01b0316336001600160a01b031614156108cd577f00000000000000000000000000000000000000000000000000000000000000006001600160a01b03166323b872dd33308888868181106107dc57634e487b7160e01b600052603260045260246000fd5b6040516001600160e01b031960e088901b1681526001600160a01b03958616600482015294909316602485015250602090910201356044820152606401600060405180830381600087803b15801561083357600080fd5b505af1158015610847573d6000803e3d6000fd5b505050507fef13e46176acd9171efc8402a306006e5dd086994d3629608eec087c466ac1d6868387878581811061088e57634e487b7160e01b600052603260045260246000fd5b905060200201356040516108c0939291906001600160a01b039390931683526020830191909152604082015260600190565b60405180910390a1610901565b60405162461bcd60e51b81526020600482015260096024820152683737ba1037bbb732b960b91b60448201526064016101fe565b8061090b81610f82565b9150506106a6565b5060006001600160a01b03861661092a8484610f4c565b604051600081818185875af1925050503d8060008114610966576040519150601f19603f3d011682016040523d82523d6000602084013e61096b565b606091505b50509050806109ae5760405162461bcd60e51b815260206004820152600f60248201526e1d1c985b9cd9995c8819985a5b1959608a1b60448201526064016101fe565b50506001805550505050565b6000546001600160a01b031633146109e45760405162461bcd60e51b81526004016101fe90610e58565b6001600160a01b038116610a495760405162461bcd60e51b815260206004820152602660248201527f4f776e61626c653a206e6577206f776e657220697320746865207a65726f206160448201526564647265737360d01b60648201526084016101fe565b61029281610ae5565b60025460ff16610a9b5760405162461bcd60e51b815260206004820152601460248201527314185d5cd8589b194e881b9bdd081c185d5cd95960621b60448201526064016101fe565b6002805460ff191690557f5db9ee0a495bf2e6ff9c91a7834c1ba4fdd244a5e8aa4e537bd38aeae4b073aa335b6040516001600160a01b03909116815260200160405180910390a1565b600080546001600160a01b038381166001600160a01b0319831681178455604051919092169283917f8be0079c531659141344cd1fd0a4f28419497f9722a3daafe3b4186f6b6457e09190a35050565b60025460ff1615610b7b5760405162461bcd60e51b815260206004820152601060248201526f14185d5cd8589b194e881c185d5cd95960821b60448201526064016101fe565b6002805460ff191660011790557f62e78cea01bee320cd4e420270b5ea74000d11b0c9f74754ebdbfc544b05a258610ac83390565b6001600160a01b038116600090815260036020908152604080832060010180548251818502810185019093528083528493830182828015610c1057602002820191906000526020600020905b815481526020019060010190808311610bfc575b505083519394508793925060009150505b82811015610cd35760005b82811015610cc057848181518110610c5457634e487b7160e01b600052603260045260246000fd5b6020026020010151898984818110610c7c57634e487b7160e01b600052603260045260246000fd5b905060200201351415610c8e57610cc0565b610c99600184610f6b565b811415610cae57600095505050505050610cdc565b80610cb881610f82565b915050610c2c565b5080610ccb81610f82565b915050610c21565b50600193505050505b9392505050565b828054828255906000526020600020908101928215610d1e579160200282015b82811115610d1e578251825591602001919060010190610d03565b50610d2a929150610d2e565b5090565b5b80821115610d2a5760008155600101610d2f565b60008083601f840112610d54578182fd5b50813567ffffffffffffffff811115610d6b578182fd5b6020830191508360208260051b8501011115610d8657600080fd5b9250929050565b600060208284031215610d9e578081fd5b8135610cdc81610fb3565b600060208284031215610dba578081fd5b8151610cdc81610fb3565b600080600060408486031215610dd9578182fd5b8335610de481610fb3565b9250602084013567ffffffffffffffff811115610dff578283fd5b610e0b86828701610d43565b9497909650939450505050565b60008060208385031215610e2a578182fd5b823567ffffffffffffffff811115610e40578283fd5b610e4c85828601610d43565b90969095509350505050565b6020808252818101527f4f776e61626c653a2063616c6c6572206973206e6f7420746865206f776e6572604082015260600190565b60208082528251828201528281015160408084015280516060840181905260009291820190839060808601905b80831015610eda5783518252928401926001929092019190840190610eba565b509695505050505050565b6000808335601e19843603018112610efb578283fd5b83018035915067ffffffffffffffff821115610f15578283fd5b6020019150600581901b3603821315610d8657600080fd5b60008235605e19833603018112610f42578182fd5b9190910192915050565b6000816000190483118215151615610f6657610f66610f9d565b500290565b600082821015610f7d57610f7d610f9d565b500390565b6000600019821415610f9657610f96610f9d565b5060010190565b634e487b7160e01b600052601160045260246000fd5b6001600160a01b038116811461029257600080fdfea2646970667358221220799aea306a13f4ad7f2d4ab0d9dfcea6218a9066b355a69afd95eea5e145512764736f6c63430008040033",
  "linkReferences": {},
  "deployedLinkReferences": {}
}