{
  "_format": "hh-sol-artifact-1",
  "contractName": "SlothyRefund",
  "sourceName": "contracts/drops/SlothyRefund.sol",
  "abi": [
    {
      "inputs": [
        {
          "internalType": "address",
          "name": "_slothyAddress",
          "type": "address"
        }
      ],
      "stateMutability": "nonpayable",
      "type": "constructor"
    },
    {
      "anonymous": false,
      "inputs": [
        {
          "indexed": false,
          "internalType": "address",
          "name": "to",
          "type": "address"
        },
        {
          "indexed": false,
          "internalType": "uint256",
          "name": "amount",
          "type": "uint256"
        },
        {
          "indexed": false,
          "internalType": "uint256",
          "name": "tokenId",
          "type": "uint256"
        }
      ],
      "name": "ClaimRefund",
      "type": "event"
    },
    {
      "anonymous": false,
      "inputs": [
        {
          "indexed": true,
          "internalType": "address",
          "name": "previousOwner",
          "type": "address"
        },
        {
          "indexed": true,
          "internalType": "address",
          "name": "newOwner",
          "type": "address"
        }
      ],
      "name": "OwnershipTransferred",
      "type": "event"
    },
    {
      "anonymous": false,
      "inputs": [
        {
          "indexed": false,
          "internalType": "address",
          "name": "account",
          "type": "address"
        }
      ],
      "name": "Paused",
      "type": "event"
    },
    {
      "anonymous": false,
      "inputs": [
        {
          "indexed": false,
          "internalType": "address",
          "name": "account",
          "type": "address"
        }
      ],
      "name": "Unpaused",
      "type": "event"
    },
    {
      "inputs": [
        {
          "internalType": "address",
          "name": "to",
          "type": "address"
        },
        {
          "internalType": "uint256[]",
          "name": "tokenIds",
          "type": "uint256[]"
        }
      ],
      "name": "claimRefund",
      "outputs": [],
      "stateMutability": "nonpayable",
      "type": "function"
    },
    {
      "inputs": [
        {
          "internalType": "address",
          "name": "_to",
          "type": "address"
        }
      ],
      "name": "getRefundInfo",
      "outputs": [
        {
          "components": [
            {
              "internalType": "uint256",
              "name": "cost",
              "type": "uint256"
            },
            {
              "internalType": "uint256[]",
              "name": "Ids",
              "type": "uint256[]"
            }
          ],
          "internalType": "struct SlothyRefund.RefundInfo",
          "name": "",
          "type": "tuple"
        }
      ],
      "stateMutability": "view",
      "type": "function"
    },
    {
      "inputs": [],
      "name": "owner",
      "outputs": [
        {
          "internalType": "address",
          "name": "",
          "type": "address"
        }
      ],
      "stateMutability": "view",
      "type": "function"
    },
    {
      "inputs": [],
      "name": "pause",
      "outputs": [],
      "stateMutability": "nonpayable",
      "type": "function"
    },
    {
      "inputs": [],
      "name": "paused",
      "outputs": [
        {
          "internalType": "bool",
          "name": "",
          "type": "bool"
        }
      ],
      "stateMutability": "view",
      "type": "function"
    },
    {
      "inputs": [],
      "name": "renounceOwnership",
      "outputs": [],
      "stateMutability": "nonpayable",
      "type": "function"
    },
    {
      "inputs": [
        {
          "internalType": "uint256",
          "name": "_from",
          "type": "uint256"
        },
        {
          "internalType": "uint256",
          "name": "_to",
          "type": "uint256"
        }
      ],
      "name": "setPeriod",
      "outputs": [],
      "stateMutability": "nonpayable",
      "type": "function"
    },
    {
      "inputs": [
        {
          "components": [
            {
              "internalType": "address",
              "name": "to",
              "type": "address"
            },
            {
              "internalType": "uint256",
              "name": "cost",
              "type": "uint256"
            },
            {
              "internalType": "uint256[]",
              "name": "Ids",
              "type": "uint256[]"
            }
          ],
          "internalType": "struct SlothyRefund.RefundInfoInput[]",
          "name": "_refundInfos",
          "type": "tuple[]"
        }
      ],
      "name": "setRefundInfo",
      "outputs": [],
      "stateMutability": "nonpayable",
      "type": "function"
    },
    {
      "inputs": [
        {
          "internalType": "address",
          "name": "newOwner",
          "type": "address"
        }
      ],
      "name": "transferOwnership",
      "outputs": [],
      "stateMutability": "nonpayable",
      "type": "function"
    },
    {
      "inputs": [],
      "name": "unpause",
      "outputs": [],
      "stateMutability": "nonpayable",
      "type": "function"
    },
    {
      "inputs": [],
      "name": "withdraw",
      "outputs": [],
      "stateMutability": "nonpayable",
      "type": "function"
    },
    {
      "stateMutability": "payable",
      "type": "receive"
    }
  ],
  "bytecode": "0x60a060405234801561001057600080fd5b5060405161120738038061120783398101604081905261002f916100ab565b6100383361005b565b600180556002805460ff1916905560601b6001600160601b0319166080526100d9565b600080546001600160a01b038381166001600160a01b0319831681178455604051919092169283917f8be0079c531659141344cd1fd0a4f28419497f9722a3daafe3b4186f6b6457e09190a35050565b6000602082840312156100bc578081fd5b81516001600160a01b03811681146100d2578182fd5b9392505050565b60805160601c6111096100fe6000396000818161079a015261087701526111096000f3fe6080604052600436106100a05760003560e01c80638456cb59116100645780638456cb5914610135578063882dc31f1461014a5780638da5cb5b1461016a578063eb7b700614610192578063efca7af0146101bf578063f2fde38b146101df57600080fd5b806303c5b1dc146100ac5780633ccfd60b146100ce5780633f4ba83a146100e35780635c975abb146100f8578063715018a61461012057600080fd5b366100a757005b600080fd5b3480156100b857600080fd5b506100cc6100c7366004610f42565b6101ff565b005b3480156100da57600080fd5b506100cc61027d565b3480156100ef57600080fd5b506100cc610335565b34801561010457600080fd5b5060025460ff1660405190151581526020015b60405180910390f35b34801561012c57600080fd5b506100cc610369565b34801561014157600080fd5b506100cc61039d565b34801561015657600080fd5b506100cc610165366004610f02565b6103cf565b34801561017657600080fd5b506000546040516001600160a01b039091168152602001610117565b34801561019e57600080fd5b506101b26101ad366004610e77565b610558565b6040516101179190610f98565b3480156101cb57600080fd5b506100cc6101da366004610eaf565b6105f2565b3480156101eb57600080fd5b506100cc6101fa366004610e77565b610aa4565b6000546001600160a01b031633146102325760405162461bcd60e51b815260040161022990610f63565b60405180910390fd5b8181116102725760405162461bcd60e51b815260206004820152600e60248201526d1a5b9d985b1a59081c195c9a5bd960921b6044820152606401610229565b600491909155600555565b6000546001600160a01b031633146102a75760405162461bcd60e51b815260040161022990610f63565b604051600090339047908381818185875af1925050503d80600081146102e9576040519150601f19603f3d011682016040523d82523d6000602084013e6102ee565b606091505b50509050806103325760405162461bcd60e51b815260206004820152601060248201526f2a3930b739b332b9103330b4b632b21760811b6044820152606401610229565b50565b6000546001600160a01b0316331461035f5760405162461bcd60e51b815260040161022990610f63565b610367610b3c565b565b6000546001600160a01b031633146103935760405162461bcd60e51b815260040161022990610f63565b6103676000610bcf565b6000546001600160a01b031633146103c75760405162461bcd60e51b815260040161022990610f63565b610367610c1f565b6000546001600160a01b031633146103f95760405162461bcd60e51b815260040161022990610f63565b8060005b8181101561055257604051806040016040528085858481811061043057634e487b7160e01b600052603260045260246000fd5b90506020028101906104429190611038565b60200135815260200185858481811061046b57634e487b7160e01b600052603260045260246000fd5b905060200281019061047d9190611038565b61048b906040810190610ff0565b80806020026020016040519081016040528093929190818152602001838360200280828437600092018290525093909452506003925087905086858181106104e357634e487b7160e01b600052603260045260246000fd5b90506020028101906104f59190611038565b610503906020810190610e77565b6001600160a01b0316815260208082019290925260400160002082518155828201518051919261053b92600185019290910190610dcd565b50905050808061054a9061108d565b9150506103fd565b50505050565b6040805180820190915260008152606060208201526001600160a01b0382166000908152600360209081526040918290208251808401845281548152600182018054855181860281018601909652808652919492938581019392908301828280156105e257602002820191906000526020600020905b8154815260200190600101908083116105ce575b5050505050815250509050919050565b600260015414156106455760405162461bcd60e51b815260206004820152601f60248201527f5265656e7472616e637947756172643a207265656e7472616e742063616c6c006044820152606401610229565b600260015561065660025460ff1690565b156106965760405162461bcd60e51b815260206004820152601060248201526f14185d5cd8589b194e881c185d5cd95960821b6044820152606401610229565b60045442101580156106aa57506005544211155b6106e05760405162461bcd60e51b8152602060048201526007602482015266195e1c1a5c995960ca1b6044820152606401610229565b6106eb828285610c9a565b6107275760405162461bcd60e51b815260206004820152600d60248201526c696e636f72726563742069647360981b6044820152606401610229565b6001600160a01b038316600090815260036020526040902054819061074c8282611057565b47101561078d5760405162461bcd60e51b815260206004820152600f60248201526e6e6f20656e6f7567682066756e647360881b6044820152606401610229565b60005b828110156109fd577f00000000000000000000000000000000000000000000000000000000000000006001600160a01b0316636352211e8686848181106107e757634e487b7160e01b600052603260045260246000fd5b905060200201356040518263ffffffff1660e01b815260040161080c91815260200190565b60206040518083038186803b15801561082457600080fd5b505afa158015610838573d6000803e3d6000fd5b505050506040513d601f19601f8201168201806040525081019061085c9190610e93565b6001600160a01b0316336001600160a01b031614156109b7577f00000000000000000000000000000000000000000000000000000000000000006001600160a01b03166323b872dd33308888868181106108c657634e487b7160e01b600052603260045260246000fd5b6040516001600160e01b031960e088901b1681526001600160a01b03958616600482015294909316602485015250602090910201356044820152606401600060405180830381600087803b15801561091d57600080fd5b505af1158015610931573d6000803e3d6000fd5b505050507fef13e46176acd9171efc8402a306006e5dd086994d3629608eec087c466ac1d6868387878581811061097857634e487b7160e01b600052603260045260246000fd5b905060200201356040516109aa939291906001600160a01b039390931683526020830191909152604082015260600190565b60405180910390a16109eb565b60405162461bcd60e51b81526020600482015260096024820152683737ba1037bbb732b960b91b6044820152606401610229565b806109f58161108d565b915050610790565b5060006001600160a01b038616610a148484611057565b604051600081818185875af1925050503d8060008114610a50576040519150601f19603f3d011682016040523d82523d6000602084013e610a55565b606091505b5050905080610a985760405162461bcd60e51b815260206004820152600f60248201526e1d1c985b9cd9995c8819985a5b1959608a1b6044820152606401610229565b50506001805550505050565b6000546001600160a01b03163314610ace5760405162461bcd60e51b815260040161022990610f63565b6001600160a01b038116610b335760405162461bcd60e51b815260206004820152602660248201527f4f776e61626c653a206e6577206f776e657220697320746865207a65726f206160448201526564647265737360d01b6064820152608401610229565b61033281610bcf565b60025460ff16610b855760405162461bcd60e51b815260206004820152601460248201527314185d5cd8589b194e881b9bdd081c185d5cd95960621b6044820152606401610229565b6002805460ff191690557f5db9ee0a495bf2e6ff9c91a7834c1ba4fdd244a5e8aa4e537bd38aeae4b073aa335b6040516001600160a01b03909116815260200160405180910390a1565b600080546001600160a01b038381166001600160a01b0319831681178455604051919092169283917f8be0079c531659141344cd1fd0a4f28419497f9722a3daafe3b4186f6b6457e09190a35050565b60025460ff1615610c655760405162461bcd60e51b815260206004820152601060248201526f14185d5cd8589b194e881c185d5cd95960821b6044820152606401610229565b6002805460ff191660011790557f62e78cea01bee320cd4e420270b5ea74000d11b0c9f74754ebdbfc544b05a258610bb23390565b6001600160a01b038116600090815260036020908152604080832060010180548251818502810185019093528083528493830182828015610cfa57602002820191906000526020600020905b815481526020019060010190808311610ce6575b505083519394508793925060009150505b82811015610dbd5760005b82811015610daa57848181518110610d3e57634e487b7160e01b600052603260045260246000fd5b6020026020010151898984818110610d6657634e487b7160e01b600052603260045260246000fd5b905060200201351415610d7857610daa565b610d83600184611076565b811415610d9857600095505050505050610dc6565b80610da28161108d565b915050610d16565b5080610db58161108d565b915050610d0b565b50600193505050505b9392505050565b828054828255906000526020600020908101928215610e08579160200282015b82811115610e08578251825591602001919060010190610ded565b50610e14929150610e18565b5090565b5b80821115610e145760008155600101610e19565b60008083601f840112610e3e578182fd5b50813567ffffffffffffffff811115610e55578182fd5b6020830191508360208260051b8501011115610e7057600080fd5b9250929050565b600060208284031215610e88578081fd5b8135610dc6816110be565b600060208284031215610ea4578081fd5b8151610dc6816110be565b600080600060408486031215610ec3578182fd5b8335610ece816110be565b9250602084013567ffffffffffffffff811115610ee9578283fd5b610ef586828701610e2d565b9497909650939450505050565b60008060208385031215610f14578182fd5b823567ffffffffffffffff811115610f2a578283fd5b610f3685828601610e2d565b90969095509350505050565b60008060408385031215610f54578182fd5b50508035926020909101359150565b6020808252818101527f4f776e61626c653a2063616c6c6572206973206e6f7420746865206f776e6572604082015260600190565b60208082528251828201528281015160408084015280516060840181905260009291820190839060808601905b80831015610fe55783518252928401926001929092019190840190610fc5565b509695505050505050565b6000808335601e19843603018112611006578283fd5b83018035915067ffffffffffffffff821115611020578283fd5b6020019150600581901b3603821315610e7057600080fd5b60008235605e1983360301811261104d578182fd5b9190910192915050565b6000816000190483118215151615611071576110716110a8565b500290565b600082821015611088576110886110a8565b500390565b60006000198214156110a1576110a16110a8565b5060010190565b634e487b7160e01b600052601160045260246000fd5b6001600160a01b038116811461033257600080fdfea2646970667358221220d95ff1b7797703163303bcb9870d4a4b9fb359ed772b011f6116842bec52aa0264736f6c63430008040033",
  "linkReferences": {},
  "deployedLinkReferences": {}
}